S0130000554C545241534F4E4943322E73726563DB
S11300000C942A000C9447000C9447000C9447006D
S11300100C9447000C9447000C9447000C94470040
S11300200C9447000C9447000C9447000C94470030
S11300300C9447000C9447000C9447000C94470020
S11300400C9447000C9447000C9447000C94470010
S11300500C94470011241FBECFE5D8E0DEBFCDBF0E
S113006010E0A0E6B0E0E8EAF6E002C005900D92E8
S1130070A837B107D9F720E0A8E7B0E001C01D9286
S1130080AC37B207E1F70E946D010C9452030C9453
S1130090000083B7886483BF83B7806283BF83B75C
S11300A0836083BF089584B3816084BB089585B35E
S11300B0816085BB80E58A95F1F785B38E7F85BB2A
S11300C0089580E090E0DC0105C099990AC001968A
S11300D0A11DB11D803C27E2920729E0A207B105CA
S11300E0A0F3803C9742A940B10579F11FBC82E09E
S11300F08EBD1DBC1CBC80E090E0DC010AC0999B55
S11301000FC02CB53DB521363A4E50F40196A11DD1
S1130110B11D803C27E2920729E0A207B10578F3DC
S1130120803C9742A940B10599F08CB59DB5A0E0FB
S1130130B0E01EBC81362AEE9207A105B10558F441
S1130140B695A7959795879508958FEF9FEF089596
S11301508EEF9FEF08958EEF9FEF089592B39F70F7
S1130160282F207F922B92BB92B39E7F92BB92B397
S1130170926092BB35E03A95F1F7000092B39D7F0F
S113018092BBEFE1F3E03197F1F700C0000022B336
S1130190F0E18F9FC0011124922F9F70892B82BBA5
S11301A082B3826082BB35E03A95F1F7000082B3F6
S11301B08D7F82BB8FE39FE10197F1F700C00000C0
S11301C008958FEF81BB8FE59AEE0197F1F700C098
S11301D0000082E00E94AE0088E20E94AE008CE043
S11301E00E94AE0086E00E94AE0081E00E94AE0054
S11301F08FE39FE10197F1F700C00000089581E0CB
S11302000E94AE008FE39FE10197F1F700C0000068
S113021080E80E94AE000895FC0160E070E034C004
S113022082B38F70907F982B92BB82B3816082BB24
S113023082B3826082BB85E08A95F1F7000082B3C5
S11302408D7F82BB8FE193E00197F1F700C000003E
S113025042B39C9180E1989F90011124942F9F7048
S1130260292B22BB92B3926092BB95E09A95F1F749
S1130270000092B39D7F92BB8FE39FE10197F1F75A
S113028000C000006F5F7F4FDF01A60FB71F9C9176
S11302909111C6CF0895CF93DF9300D0CDB7DEB7C9
S11302A090E8998390EC9A83E62FF0E0319721E06F
S11302B030E02C0F3D1FE20FF31F9081890F815016
S11302C00E94AE008FE891E00197F1F700C00000B2
S11302D00F900F90DF91CF910895CF93DF9300D0CB
S11302E000D0CDB7DEB78AB381608ABB0E94E1003B
S11302F00E94490080E88CBF2FEF81EE94E02150EA
S113030080409040E1F700C000000E9453000E942A
S113031057000E9461008F3F2FEF920749F461E07C
S113032081E00E944B0180E690E00E940C01EFCF37
S1130330BC0180E090E00E94220226E933E44BE015
S11303405DE30E94880220E030E040E05FE30E9429
S113035088020E94EC0170937B0060937A002091E4
S11303607800309179002617370711F00E94FF00BA
S113037061E081E00E944B0187E690E00E940C015D
S113038061E08CE00E944B014AE0BE016F5F7F4F49
S113039080917A0090917B000E941D03CE0101960A
S11303A00E940C0161E08EE00E944B0184E790E022
S11303B00E940C0180917A0090917B0090937900C7
S11303C0809378008FEF96E721E0815090402040A1
S11303D0E1F700C000009BCF0E94F3016894B111C3
S11303E00C94820208950E94670288F09F5798F047
S11303F0B92F9927B751B0F0E1F0660F771F881F26
S1130400991F1AF0BA95C9F714C0B13091F00E943F
S11304108102B1E008950C948102672F782F882718
S1130420B85F39F0B93FCCF3869577956795B39566
S1130430D9F73EF490958095709561957F4F8F4FD5
S11304409F4F0895E89409C097FB3EF490958095DA
S1130450709561957F4F8F4F9F4F9923A9F0F92F86
S113046096E9BB279395F695879577956795B79504
S1130470F111F8CFFAF4BB0F11F460FF1BC06F5FEA
S11304807F4F8F4F9F4F16C0882311F096E911C0FC
S1130490772321F09EE8872F762F05C0662371F01D
S11304A096E8862F70E060E02AF09A95660F771F31
S11304B0881FDAF7880F9695879597F9089557FD61
S11304C09058440F551F59F05F3F71F04795880FBE
S11304D097FB991F61F09F3F79F087950895121655
S11304E013061406551FF2CF4695F1DF08C0161601
S11304F017061806991FF1CF8695710561050894B2
S11305000895E894BB2766277727CB0197F90895C8
S11305100E949B020C940C030E94FE0238F00E947D
S1130520050320F0952311F00C94F5020C94FB02C2
S113053011240C9482020E945F0270F3959FC1F310
S1130540950F50E0551F629FF001729FBB27F00D7D
S1130550B11D639FAA27F00DB11DAA1F649F6627D2
S1130560B00DA11D661F829F2227B00DA11D621F21
S1130570739FB00DA11D621F839FA00D611D221FDB
S1130580749F3327A00D611D231F849F600D211DBF
S1130590822F762F6A2F11249F5750409AF0F1F042
S11305A088234AF0EE0FFF1FBB1F661F771F881FAB
S11305B091505040A9F79E3F510580F00C94F502EC
S11305C00C9482025F3FE4F3983ED4F386957795CA
S11305D06795B795F795E7959F5FC1F7FE2B880F51
S11305E0911D9695879597F9089597F99F6780E8E7
S11305F070E060E008959FEF80EC089500240A9471
S11306001616170618060906089500240A941216E9
S11306101306140605060895092E0394000C11F41C
S1130620882352F0BB0F40F4BF2B11F460FF04C0C9
S11306306F5F7F4F8F4F9F4F0895BB274A3031F430
S1130640992322F4BDE2909581959F4F0C94290340
S1130650BB27FB015527AA27880F991FAA1FA41798
S113066010F0A41B83955051B9F7A05DAA3308F08C
S1130670A95DA193009779F7B111B1931192CB01C0
S11306800C944203DC01FC01672F71917723E1F79D
S1130690329704C07C916D9370836291AE17BF074B
S10B06A0C8F30895F894FFCF9C
S11306A84572726F72210045796520446973742E0E
S10B06B8203D200020636D00C9
S9030000FC
